{
  "contractName": "Game",
  "abi": [
    {
      "anonymous": false,
      "inputs": [
        {
          "indexed": false,
          "internalType": "address",
          "name": "_address",
          "type": "address"
        },
        {
          "indexed": false,
          "internalType": "uint256",
          "name": "_index",
          "type": "uint256"
        },
        {
          "indexed": false,
          "internalType": "enum State",
          "name": "_state",
          "type": "uint8"
        }
      ],
      "name": "Play",
      "type": "event"
    },
    {
      "inputs": [],
      "name": "N",
      "outputs": [
        {
          "internalType": "uint256",
          "name": "",
          "type": "uint256"
        }
      ],
      "stateMutability": "view",
      "type": "function",
      "constant": true
    },
    {
      "inputs": [
        {
          "internalType": "uint256",
          "name": "",
          "type": "uint256"
        }
      ],
      "name": "deck",
      "outputs": [
        {
          "internalType": "uint256",
          "name": "",
          "type": "uint256"
        }
      ],
      "stateMutability": "view",
      "type": "function",
      "constant": true
    },
    {
      "inputs": [
        {
          "internalType": "uint256",
          "name": "_index",
          "type": "uint256"
        }
      ],
      "name": "getInstance",
      "outputs": [
        {
          "components": [
            {
              "internalType": "address",
              "name": "alice",
              "type": "address"
            },
            {
              "internalType": "address",
              "name": "bob",
              "type": "address"
            },
            {
              "internalType": "uint256[52]",
              "name": "cards",
              "type": "uint256[52]"
            },
            {
              "internalType": "uint8",
              "name": "alice_index",
              "type": "uint8"
            },
            {
              "internalType": "uint256",
              "name": "bob_card",
              "type": "uint256"
            },
            {
              "internalType": "enum State",
              "name": "state",
              "type": "uint8"
            },
            {
              "internalType": "uint256",
              "name": "alice_secret",
              "type": "uint256"
            },
            {
              "internalType": "uint256",
              "name": "bob_secret",
              "type": "uint256"
            }
          ],
          "internalType": "struct Instance",
          "name": "",
          "type": "tuple"
        }
      ],
      "stateMutability": "nonpayable",
      "type": "function"
    },
    {
      "inputs": [],
      "name": "index",
      "outputs": [
        {
          "internalType": "uint256",
          "name": "",
          "type": "uint256"
        }
      ],
      "stateMutability": "view",
      "type": "function",
      "constant": true
    },
    {
      "inputs": [
        {
          "internalType": "uint256[52]",
          "name": "cards",
          "type": "uint256[52]"
        }
      ],
      "name": "commit_alice",
      "outputs": [
        {
          "internalType": "uint256",
          "name": "_index",
          "type": "uint256"
        }
      ],
      "stateMutability": "nonpayable",
      "type": "function"
    },
    {
      "inputs": [
        {
          "internalType": "uint256",
          "name": "_index",
          "type": "uint256"
        },
        {
          "internalType": "uint8",
          "name": "alice_index",
          "type": "uint8"
        }
      ],
      "name": "commit_bob",
      "outputs": [
        {
          "internalType": "uint256[52]",
          "name": "",
          "type": "uint256[52]"
        }
      ],
      "stateMutability": "nonpayable",
      "type": "function"
    },
    {
      "inputs": [
        {
          "internalType": "uint256",
          "name": "_index",
          "type": "uint256"
        },
        {
          "internalType": "uint256",
          "name": "card",
          "type": "uint256"
        }
      ],
      "name": "play_bob",
      "outputs": [],
      "stateMutability": "nonpayable",
      "type": "function"
    },
    {
      "inputs": [
        {
          "internalType": "uint256",
          "name": "_index",
          "type": "uint256"
        },
        {
          "internalType": "uint256",
          "name": "_bob_card",
          "type": "uint256"
        }
      ],
      "name": "play_alice",
      "outputs": [],
      "stateMutability": "nonpayable",
      "type": "function"
    },
    {
      "inputs": [
        {
          "internalType": "uint256",
          "name": "_index",
          "type": "uint256"
        },
        {
          "internalType": "uint256",
          "name": "alice_secret",
          "type": "uint256"
        }
      ],
      "name": "reveal_alice",
      "outputs": [],
      "stateMutability": "nonpayable",
      "type": "function"
    },
    {
      "inputs": [
        {
          "internalType": "uint256",
          "name": "_index",
          "type": "uint256"
        },
        {
          "internalType": "uint256",
          "name": "bob_secret",
          "type": "uint256"
        }
      ],
      "name": "reveal_bob",
      "outputs": [],
      "stateMutability": "nonpayable",
      "type": "function"
    },
    {
      "inputs": [
        {
          "internalType": "uint256",
          "name": "_index",
          "type": "uint256"
        }
      ],
      "name": "verify",
      "outputs": [
        {
          "internalType": "bool",
          "name": "",
          "type": "bool"
        },
        {
          "internalType": "address",
          "name": "",
          "type": "address"
        }
      ],
      "stateMutability": "nonpayable",
      "type": "function"
    }
  ],
  "bytecode": "0x6080604052600060355534801561001557600080fd5b50746eb5db56f77d0fde810f77a2f9512a467559e2b1a0600090815574c3d5d33a720d06d06ff47474e5313812375ca4911460015575014549b438c6391f9e6ba574b7d333554728410a55006002557501b2c9b8cc9ef43fa1bedec59cb2b829dd142ff262e360035575016465f68d4d7b192dff5efbad52df8e1ab740a2358160045575012faba7cfec254f1d71291f627c87ac8448743bbc2c6005557502784c43e3b34654e9e0470bd512fa714663da4083576006557501e3820fac61ec778d3bf234308769c7ebdce67330316007557501ab9a10d2f25797297cd0856ab562869b26d1fb9d9560085574080237670fe35db4adb588ced7c5f0a6866646c524600955750263e34fbc648bb1e6a8ff096a7765e4b1e9301e01d4600a5575026f65f67d10a71e31d38592340dd90695dc88c8ac28600b557501d3890eb460ac90f7bb4493d971f431a4ce8628ad43600c557501a87be4ec01e6a7f21286b90c1e5a52755dd0b86b8d600d5574ef22f72b081d81eedc0a7173a3bae1ad7337cb4b38600e5574c6ce5229053500016208f12f2d4fa9a92ad6850f81600f557501a7d5273df2479d5d47d79748ec7c513df7752bb32f6010557501f7756ffb7765a79f1e5d3c19528ad933b2c9a135be6011557501e446755b3112bed4cfb951e889a56faf5276f07c656012557501aa0d529553bd49569d7bab12db7f833661d101f31e60135574288483b54ed89804deb0a8f67615f77383611706336014557491339dd1e5f4753a6c72b3da458bfe63f3570f2e026015557502555ba2a902e32def8fa5d925e43acb0f71f09fa54b6016557501ddacbd28071ddf086f80392f23ef03ac3a1c16facf60175574ceda442d522c1c461718c3a8b62ef3dcdcf8670133601855750266e6a3ac126b870f5a3af5335a24a3a1c413b4fb89601955750276b8fa22f84982c631b9f4e5c22be3ac2deb811054601a557501745f3cca7460d68585848958a4ab65522c94382ecd601b5574b2b5061646510418dbcaf07bad76e869e42424c89c601c557501c795659823c1bc0c02cf0b0420e0cf54b38fc5650e601d557501cac6ec47969bcd80d16d1005726fae471588649207601e5575014d9742019a8d56488cdabb0bbffd2c084e7cd978eb601f5574d35b9f0087da4a381c4bbbbefbb4921beb780f17eb60205575026f9a8b7dcbbde814170569e534f87ed4e93fd770826021557502979a23c4f98fd06a4a7124dee9d50aabc5ae0c3bc360225575018f4d762e97e4c318151d27d09a23c038eca5c84ed66023557422583b93e9f1c021febf3cd1785fd93a9bf83c2cbe60245574e0d62e9e203f47b82743c36a35a1a96029f7b7100060255575023cbd461618b7701d7a86d73ecd95e1cd69b21fde87602655746218258dc91b55faada4e753a5bd0fd1ecb4cd2edd602755750193c954ee4fe7edfeba7ca5d88c544972a6933f2e0960285574356ced845b09966230ed0e49da6b8ca1a997db0ce160295574bf0d317a123d0076534020058d4b684505f4c2b1a3602a557501f43cbdd50caefc04335ebe1b4074b0906ae407ad0b602b5575020a3cb301c6cade53dd244b9afe4c5f704cd90f9b25602c55750253fc42eb324500f3ec97f35eb1ce69535b5d4c1dbf602d5574bb0ea3bf22deca819f59bc622df653bc0fa4fc04af602e55743f53c6528bc06cc8e47669d1e23be5fcb470f23373602f55744890c4354b9aa4b2aaa955281ebc2cb07be4175a52603055750246fa16ae8aabfedf9be792161068e10e69b3dd38ea6031557501e63eb9ad4438a1eb1a48419fe05e63e3275528fc7d6032557446c6181a9e8f656b5c64b198c7ab81c4d74523c78f60335561112c90819061055d90396000f3fe608060405234801561001057600080fd5b50600436106100a95760003560e01c80638753367f116100715780638753367f14610127578063a1130b8d14610148578063c9e525df1461015b578063da6b178914610163578063ebd348de14610176578063f86a7b8a14610196576100a9565b80632986c0e5146100ae5780634f5b4174146100cc57806365b1dafa146100e157806366a5b50e146100f4578063727eb70214610114575b600080fd5b6100b66101a9565b6040516100c391906110b7565b60405180910390f35b6100df6100da366004610e63565b6101af565b005b6100b66100ef366004610e33565b6102eb565b610107610102366004610e84565b6102ff565b6040516100c39190610f32565b6100b6610122366004610db2565b610472565b61013a610135366004610e33565b610581565b6040516100c3929190610f47565b6100df610156366004610e63565b6108f9565b6100b66109eb565b6100df610171366004610e63565b610a0f565b610189610184366004610e33565b610ad0565b6040516100c39190611030565b6100df6101a4366004610e63565b610bc2565b60355481565b8160355481106101da5760405162461bcd60e51b81526004016101d190610f8c565b60405180910390fd5b60008381526034602052604090205483906001600160a01b031633146102125760405162461bcd60e51b81526004016101d190610fba565b8360048060008381526034602052604090206038015460ff16600781111561023657fe5b146102535760405162461bcd60e51b81526004016101d190610fe8565b856000805160206110d78339815191523388600460405161027693929190610f03565b60405180910390a160008781526034602052604080822060390188905582825290206038015460ff1660078111156102aa57fe5b60010160078111156102b857fe5b6000828152603460205260409020603801805460ff191660018360078111156102dd57fe5b021790555050505050505050565b600081603481106102f857fe5b0154905081565b610307610cf7565b8260355481106103295760405162461bcd60e51b81526004016101d190610f8c565b8360018060008381526034602052604090206038015460ff16600781111561034d57fe5b1461036a5760405162461bcd60e51b81526004016101d190610fe8565b6000868152603460205260409081902060018082018054336001600160a01b031990911681179091556036909201805460ff191660ff8a16179055915188926000805160206110d7833981519152926103c69290918591610f03565b60405180910390a16000878152603460208190526040918290208251610680810193849052926002909101919082845b8154815260200190600101908083116103f6575050505050945060008181526034602052604090206038015460ff16600781111561043057fe5b600101600781111561043e57fe5b6000828152603460205260409020603801805460ff1916600183600781111561046357fe5b02179055505050505092915050565b600061047c610d16565b338082526040808301859052600160a084015260355490519093506000805160206110d7833981519152916104b5918590600090610f03565b60405180910390a1600082815260346020818152604092839020845181546001600160a01b03199081166001600160a01b039283161783559286015160018301805490941691161790915591830151839291610515916002840191610d5f565b50606082015160368201805460ff90921660ff199283161790556080830151603783015560a08301516038830180549192909116600183600781111561055757fe5b021790555060c0820151603982015560e090910151603a9091015550603580546001019055919050565b6000808260355481106105a65760405162461bcd60e51b81526004016101d190610f8c565b8360068060008381526034602052604090206038015460ff1660078111156105ca57fe5b146105e75760405162461bcd60e51b81526004016101d190610fe8565b600086815260346020819052604082206036015473__Math__________________________________9163783ce45891849160ff90911690811061062757fe5b015460008a815260346020526040908190206039015490516001600160e01b031960e085901b1681526106809291907ffc8b83bbf912dc329e3d94519569173d2f186aa6f2ab11efb7b18d9b9e776da1906004016110c0565b60206040518083038186803b15801561069857600080fd5b505af41580156106ac573d6000803e3d6000fd5b505050506040513d601f19601f820116820180604052508101906106d09190610e4b565b6000888152603460205260408082206037810154603a909101549151630f079c8b60e31b8152939450919273__Math__________________________________9263783ce45892610745927ffc8b83bbf912dc329e3d94519569173d2f186aa6f2ab11efb7b18d9b9e776da1906004016110c0565b60206040518083038186803b15801561075d57600080fd5b505af4158015610771573d6000803e3d6000fd5b505050506040513d601f19601f820116820180604052508101906107959190610e4b565b905060006107a283610cb7565b905060006107af83610cb7565b90506000805160206110d7833981519152338b60066040516107d393929190610f03565b60405180910390a160008a81526034602052604090819020603801805460ff1916600790811790915590516000805160206110d78339815191529161081b9133918e91610f03565b60405180910390a18115801561082f575080155b156108445760008098509850505050506108f1565b816108755750505060008781526034602052604090206001908101549096506001600160a01b031694506108f19050565b806108a65750505060008781526034602052604090206001908101549096506001600160a01b031694506108f19050565b60018385116108cf5760008b8152603460205260409020600101546001600160a01b03166108e8565b60008b8152603460205260409020546001600160a01b03165b98509850505050505b505050915091565b81603554811061091b5760405162461bcd60e51b81526004016101d190610f8c565b60008381526034602052604090205483906001600160a01b031633146109535760405162461bcd60e51b81526004016101d190610fba565b8360038060008381526034602052604090206038015460ff16600781111561097757fe5b146109945760405162461bcd60e51b81526004016101d190610fe8565b856000805160206110d7833981519152338860036040516109b793929190610f03565b60405180910390a160008781526034602052604080822060370188905582825290206038015460ff1660078111156102aa57fe5b7ffc8b83bbf912dc329e3d94519569173d2f186aa6f2ab11efb7b18d9b9e776da181565b816035548110610a315760405162461bcd60e51b81526004016101d190610f8c565b60008381526034602052604090206001015483906001600160a01b03163314610a6c5760405162461bcd60e51b81526004016101d190610f60565b8360028060008381526034602052604090206038015460ff166007811115610a9057fe5b14610aad5760405162461bcd60e51b81526004016101d190610fe8565b856000805160206110d7833981519152338860026040516109b793929190610f03565b610ad8610d16565b816035548110610afa5760405162461bcd60e51b81526004016101d190610f8c565b60008381526034602081815260409283902083516101008101855281546001600160a01b039081168252600183015416928101929092528351610680810180865292949193918501929091600285019182845b815481526020019060010190808311610b4d575050509183525050603682015460ff9081166020830152603783015460408301526038830154606090920191166007811115610b9857fe5b6007811115610ba357fe5b815260398201546020820152603a909101546040909101529392505050565b816035548110610be45760405162461bcd60e51b81526004016101d190610f8c565b60008381526034602052604090206001015483906001600160a01b03163314610c1f5760405162461bcd60e51b81526004016101d190610f60565b8360058060008381526034602052604090206038015460ff166007811115610c4357fe5b14610c605760405162461bcd60e51b81526004016101d190610fe8565b856000805160206110d783398151915233886005604051610c8393929190610f03565b60405180910390a1600087815260346020526040808220603a0188905582825290206038015460ff1660078111156102aa57fe5b6000805b6034811015610cec5760008160348110610cd157fe5b0154831415610ce4576001915050610cf2565b600101610cbb565b50600090505b919050565b6040518061068001604052806034906020820280368337509192915050565b604080516101008101825260008082526020820152908101610d36610cf7565b815260006020820181905260408201819052606082018190526080820181905260a09091015290565b8260348101928215610d8d579160200282015b82811115610d8d578251825591602001919060010190610d72565b50610d99929150610d9d565b5090565b5b80821115610d995760008155600101610d9e565b6000610680808385031215610dc5578182fd5b83601f840112610dd3578182fd5b60405181810181811067ffffffffffffffff82111715610df1578384fd5b6040528084838101871015610e04578485fd5b8493505b6034841015610e2857803582526001939093019260209182019101610e08565b509095945050505050565b600060208284031215610e44578081fd5b5035919050565b600060208284031215610e5c578081fd5b5051919050565b60008060408385031215610e75578081fd5b50508035926020909101359150565b60008060408385031215610e96578182fd5b82359150602083013560ff81168114610ead578182fd5b809150509250929050565b6001600160a01b03169052565b8060005b6034811015610ee8578151845260209384019390910190600101610ec9565b50505050565b60088110610ef857fe5b9052565b60ff169052565b6001600160a01b0384168152602081018390526060810160088310610f2457fe5b826040830152949350505050565b6106808101610f418284610ec5565b92915050565b91151582526001600160a01b0316602082015260400190565b60208082526012908201527129b2b73232b91034b9903737ba102137b11760711b604082015260600190565b60208082526014908201527324b73232bc1037baba1037b3103137bab732399760611b604082015260600190565b60208082526014908201527329b2b73232b91034b9903737ba1020b634b1b29760611b604082015260600190565b60208082526028908201527f46756e6374696f6e2063616e6e6f742062652063616c6c656420617420746869604082015267399039ba30ba329760c11b606082015260800190565b81516001600160a01b0316815260208083015161076083019161105590840182610eb8565b5060408301516110686040840182610ec5565b50606083015161107c6106c0840182610efc565b5060808301516106e083015260a083015161109b610700840182610eee565b5060c083015161072083015260e0909201516107409091015290565b90815260200190565b928352602083019190915260408201526060019056feab674edee661bf6172fe80435e1b0f68ec95d00394b2184e4365ed947c91bfa1a2646970667358221220424a68980aacdc3dfacae85bc54737d8cf0e43d35c6dbcedd37ec8e82a6862d064736f6c63430007000033",
  "immutableReferences": {},
  "source": "// SPDX-License-Identifier: GPL v3\npragma solidity >= 0.7.0;\npragma experimental ABIEncoderV2;\n\nimport \"./Math.sol\";\nimport \"./GameHelpers.sol\";\n\ncontract Game is GameHelpers\n{\n    function commit_alice(uint[52] memory cards)\n        public\n        returns (uint _index)\n    {\n        Instance memory instance;\n        instance.alice = msg.sender;\n        instance.cards = cards;\n        instance.state = State.Commit_Bob;\n        _index = index;\n\n        emit Play(msg.sender, _index, State.Commit_Alice);\n        data[_index] = instance;\n        ++index;\n    }\n\n    function commit_bob(uint _index, uint8 alice_index)\n        validIndex(_index)\n        atState(_index, State.Commit_Bob)\n        transitionNext(_index)\n        public\n        returns (uint[52] memory)\n    {\n        data[_index].bob = msg.sender;\n        data[_index].alice_index = alice_index;\n\n        emit Play(msg.sender, _index, State.Commit_Bob);\n        return data[_index].cards;\n    }\n\n    function play_bob(uint _index, uint card)\n        validIndex(_index)\n        onlyBob(_index)\n        atState(_index, State.Play_Bob)\n        transitionNext(_index)\n        public\n    {\n        emit Play(msg.sender, _index, State.Play_Bob);\n        data[_index].bob_card = card;\n    }\n\n    function play_alice(uint _index, uint _bob_card)\n        validIndex(_index)\n        onlyAlice(_index)\n        atState(_index, State.Play_Alice)\n        transitionNext(_index)\n        public\n    {\n        emit Play(msg.sender, _index, State.Play_Alice);\n        data[_index].bob_card = _bob_card;\n    }\n\n    function reveal_alice(uint _index, uint alice_secret)\n        validIndex(_index)\n        onlyAlice(_index)\n        atState(_index, State.Reveal_Alice)\n        transitionNext(_index)\n        public\n    {\n        emit Play(msg.sender, _index, State.Reveal_Alice);\n        data[_index].alice_secret = alice_secret;\n    }\n\n    function reveal_bob(uint _index, uint bob_secret)\n        validIndex(_index)\n        onlyBob(_index)\n        atState(_index, State.Reveal_Bob)\n        transitionNext(_index)\n        public\n    {\n        emit Play(msg.sender, _index, State.Reveal_Bob);\n        data[_index].bob_secret = bob_secret;\n    }\n\n    function verify(uint _index)\n        validIndex(_index)\n        atState(_index, State.Verify)\n        public returns (bool, address)\n    {\n        uint alice_card_decrypted =\n            Math.expmod(deck[data[_index].alice_index], data[_index].alice_secret, N);\n        uint bob_card_decrypted =\n            Math.expmod(data[_index].bob_card, data[_index].bob_secret, N);\n\n        bool verify_alice = is_card_in_deck(alice_card_decrypted);\n        bool verify_bob = is_card_in_deck(bob_card_decrypted);\n\n        emit Play(msg.sender, _index, State.Verify);\n        data[_index].state = State.Done;\n        emit Play(msg.sender, _index, State.Done);\n\n        if (!verify_alice && !verify_bob)\n            return (false, address(0));\n        if (!verify_alice)\n            return (true, data[_index].bob);\n        if (!verify_bob)\n            return (true, data[_index].bob);\n\n        /* Picking a winner based on who has the \"largest hand\" */\n        return (\n                true,\n                alice_card_decrypted > bob_card_decrypted ? data[_index].alice : data[_index].bob\n        );\n    }\n}\n",
  "sourcePath": "/home/harikrishnan/area51/deal/contracts/Game.sol",
  "compiler": {
    "name": "solc",
    "version": "0.7.0+commit.9e61f92b.Emscripten.clang"
  },
  "schemaVersion": "3.2.3",
  "updatedAt": "2020-08-19T15:55:48.942Z",
  "networkType": "ethereum",
  "devdoc": {
    "kind": "dev",
    "methods": {},
    "version": 1
  },
  "userdoc": {
    "kind": "user",
    "methods": {},
    "version": 1
  }
}