{
  "contractName": "Game",
  "abi": [
    {
      "anonymous": false,
      "inputs": [
        {
          "indexed": false,
          "internalType": "address",
          "name": "_address",
          "type": "address"
        },
        {
          "indexed": false,
          "internalType": "uint256",
          "name": "_index",
          "type": "uint256"
        },
        {
          "indexed": false,
          "internalType": "enum State",
          "name": "_state",
          "type": "uint8"
        }
      ],
      "name": "Play",
      "type": "event"
    },
    {
      "anonymous": false,
      "inputs": [
        {
          "indexed": false,
          "internalType": "uint256",
          "name": "_index",
          "type": "uint256"
        },
        {
          "indexed": false,
          "internalType": "bool",
          "name": "verified",
          "type": "bool"
        },
        {
          "indexed": false,
          "internalType": "bool",
          "name": "isAlice",
          "type": "bool"
        }
      ],
      "name": "Winner",
      "type": "event"
    },
    {
      "inputs": [],
      "name": "N",
      "outputs": [
        {
          "internalType": "uint256",
          "name": "",
          "type": "uint256"
        }
      ],
      "stateMutability": "view",
      "type": "function",
      "constant": true
    },
    {
      "inputs": [
        {
          "internalType": "uint256",
          "name": "seed",
          "type": "uint256"
        }
      ],
      "name": "createMatch",
      "outputs": [
        {
          "internalType": "uint256",
          "name": "_index",
          "type": "uint256"
        }
      ],
      "stateMutability": "view",
      "type": "function",
      "constant": true
    },
    {
      "inputs": [
        {
          "internalType": "uint256",
          "name": "",
          "type": "uint256"
        }
      ],
      "name": "deck",
      "outputs": [
        {
          "internalType": "uint256",
          "name": "",
          "type": "uint256"
        }
      ],
      "stateMutability": "view",
      "type": "function",
      "constant": true
    },
    {
      "inputs": [
        {
          "internalType": "uint256",
          "name": "_index",
          "type": "uint256"
        }
      ],
      "name": "getInstance",
      "outputs": [
        {
          "components": [
            {
              "internalType": "address",
              "name": "alice",
              "type": "address"
            },
            {
              "internalType": "address",
              "name": "bob",
              "type": "address"
            },
            {
              "internalType": "uint256[52]",
              "name": "cards",
              "type": "uint256[52]"
            },
            {
              "internalType": "uint8",
              "name": "alice_index",
              "type": "uint8"
            },
            {
              "internalType": "uint256",
              "name": "bob_card",
              "type": "uint256"
            },
            {
              "internalType": "enum State",
              "name": "state",
              "type": "uint8"
            },
            {
              "internalType": "uint256",
              "name": "alice_secret",
              "type": "uint256"
            },
            {
              "internalType": "uint256",
              "name": "bob_secret",
              "type": "uint256"
            }
          ],
          "internalType": "struct Instance",
          "name": "",
          "type": "tuple"
        }
      ],
      "stateMutability": "view",
      "type": "function",
      "constant": true
    },
    {
      "inputs": [],
      "name": "index",
      "outputs": [
        {
          "internalType": "uint256",
          "name": "",
          "type": "uint256"
        }
      ],
      "stateMutability": "view",
      "type": "function",
      "constant": true
    },
    {
      "inputs": [
        {
          "internalType": "uint256[52]",
          "name": "cards",
          "type": "uint256[52]"
        }
      ],
      "name": "commit_alice",
      "outputs": [
        {
          "internalType": "uint256",
          "name": "_index",
          "type": "uint256"
        }
      ],
      "stateMutability": "nonpayable",
      "type": "function"
    },
    {
      "inputs": [
        {
          "internalType": "uint256",
          "name": "_index",
          "type": "uint256"
        },
        {
          "internalType": "uint8",
          "name": "alice_index",
          "type": "uint8"
        }
      ],
      "name": "commit_bob",
      "outputs": [
        {
          "internalType": "uint256[52]",
          "name": "",
          "type": "uint256[52]"
        }
      ],
      "stateMutability": "nonpayable",
      "type": "function"
    },
    {
      "inputs": [
        {
          "internalType": "uint256",
          "name": "_index",
          "type": "uint256"
        },
        {
          "internalType": "uint256",
          "name": "card",
          "type": "uint256"
        }
      ],
      "name": "play_bob",
      "outputs": [],
      "stateMutability": "nonpayable",
      "type": "function"
    },
    {
      "inputs": [
        {
          "internalType": "uint256",
          "name": "_index",
          "type": "uint256"
        },
        {
          "internalType": "uint256",
          "name": "_bob_card",
          "type": "uint256"
        }
      ],
      "name": "play_alice",
      "outputs": [],
      "stateMutability": "nonpayable",
      "type": "function"
    },
    {
      "inputs": [
        {
          "internalType": "uint256",
          "name": "_index",
          "type": "uint256"
        },
        {
          "internalType": "uint256",
          "name": "alice_secret",
          "type": "uint256"
        }
      ],
      "name": "reveal_alice",
      "outputs": [],
      "stateMutability": "nonpayable",
      "type": "function"
    },
    {
      "inputs": [
        {
          "internalType": "uint256",
          "name": "_index",
          "type": "uint256"
        },
        {
          "internalType": "uint256",
          "name": "bob_secret",
          "type": "uint256"
        }
      ],
      "name": "reveal_bob",
      "outputs": [],
      "stateMutability": "nonpayable",
      "type": "function"
    },
    {
      "inputs": [
        {
          "internalType": "uint256",
          "name": "_index",
          "type": "uint256"
        }
      ],
      "name": "verify",
      "outputs": [
        {
          "internalType": "bool",
          "name": "",
          "type": "bool"
        },
        {
          "internalType": "address",
          "name": "",
          "type": "address"
        }
      ],
      "stateMutability": "nonpayable",
      "type": "function"
    }
  ],
  "bytecode": "0x6080604052600060355534801561001557600080fd5b50746eb5db56f77d0fde810f77a2f9512a467559e2b1a0600090815574c3d5d33a720d06d06ff47474e5313812375ca4911460015575014549b438c6391f9e6ba574b7d333554728410a55006002557501b2c9b8cc9ef43fa1bedec59cb2b829dd142ff262e360035575016465f68d4d7b192dff5efbad52df8e1ab740a2358160045575012faba7cfec254f1d71291f627c87ac8448743bbc2c6005557502784c43e3b34654e9e0470bd512fa714663da4083576006557501e3820fac61ec778d3bf234308769c7ebdce67330316007557501ab9a10d2f25797297cd0856ab562869b26d1fb9d9560085574080237670fe35db4adb588ced7c5f0a6866646c524600955750263e34fbc648bb1e6a8ff096a7765e4b1e9301e01d4600a5575026f65f67d10a71e31d38592340dd90695dc88c8ac28600b557501d3890eb460ac90f7bb4493d971f431a4ce8628ad43600c557501a87be4ec01e6a7f21286b90c1e5a52755dd0b86b8d600d5574ef22f72b081d81eedc0a7173a3bae1ad7337cb4b38600e5574c6ce5229053500016208f12f2d4fa9a92ad6850f81600f557501a7d5273df2479d5d47d79748ec7c513df7752bb32f6010557501f7756ffb7765a79f1e5d3c19528ad933b2c9a135be6011557501e446755b3112bed4cfb951e889a56faf5276f07c656012557501aa0d529553bd49569d7bab12db7f833661d101f31e60135574288483b54ed89804deb0a8f67615f77383611706336014557491339dd1e5f4753a6c72b3da458bfe63f3570f2e026015557502555ba2a902e32def8fa5d925e43acb0f71f09fa54b6016557501ddacbd28071ddf086f80392f23ef03ac3a1c16facf60175574ceda442d522c1c461718c3a8b62ef3dcdcf8670133601855750266e6a3ac126b870f5a3af5335a24a3a1c413b4fb89601955750276b8fa22f84982c631b9f4e5c22be3ac2deb811054601a557501745f3cca7460d68585848958a4ab65522c94382ecd601b5574b2b5061646510418dbcaf07bad76e869e42424c89c601c557501c795659823c1bc0c02cf0b0420e0cf54b38fc5650e601d557501cac6ec47969bcd80d16d1005726fae471588649207601e5575014d9742019a8d56488cdabb0bbffd2c084e7cd978eb601f5574d35b9f0087da4a381c4bbbbefbb4921beb780f17eb60205575026f9a8b7dcbbde814170569e534f87ed4e93fd770826021557502979a23c4f98fd06a4a7124dee9d50aabc5ae0c3bc360225575018f4d762e97e4c318151d27d09a23c038eca5c84ed66023557422583b93e9f1c021febf3cd1785fd93a9bf83c2cbe60245574e0d62e9e203f47b82743c36a35a1a96029f7b7100060255575023cbd461618b7701d7a86d73ecd95e1cd69b21fde87602655746218258dc91b55faada4e753a5bd0fd1ecb4cd2edd602755750193c954ee4fe7edfeba7ca5d88c544972a6933f2e0960285574356ced845b09966230ed0e49da6b8ca1a997db0ce160295574bf0d317a123d0076534020058d4b684505f4c2b1a3602a557501f43cbdd50caefc04335ebe1b4074b0906ae407ad0b602b5575020a3cb301c6cade53dd244b9afe4c5f704cd90f9b25602c55750253fc42eb324500f3ec97f35eb1ce69535b5d4c1dbf602d5574bb0ea3bf22deca819f59bc622df653bc0fa4fc04af602e55743f53c6528bc06cc8e47669d1e23be5fcb470f23373602f55744890c4354b9aa4b2aaa955281ebc2cb07be4175a52603055750246fa16ae8aabfedf9be792161068e10e69b3dd38ea6031557501e63eb9ad4438a1eb1a48419fe05e63e3275528fc7d6032557446c6181a9e8f656b5c64b198c7ab81c4d74523c78f60335561137a90819061055d90396000f3fe608060405234801561001057600080fd5b50600436106100b45760003560e01c8063a1130b8d11610071578063a1130b8d14610153578063b67a88f914610166578063c9e525df14610179578063da6b178914610181578063ebd348de14610194578063f86a7b8a146101b4576100b4565b80632986c0e5146100b95780634f5b4174146100d757806365b1dafa146100ec57806366a5b50e146100ff578063727eb7021461011f5780638753367f14610132575b600080fd5b6100c16101c7565b6040516100ce91906112e1565b60405180910390f35b6100ea6100e5366004611006565b6101cd565b005b6100c16100fa366004610fd6565b610309565b61011261010d366004611027565b61031d565b6040516100ce91906110c8565b6100c161012d366004610f55565b610490565b610145610140366004610fd6565b61059f565b6040516100ce9291906110dd565b6100ea610161366004611006565b6109d3565b6100c1610174366004610fd6565b610ac5565b6100c1610b90565b6100ea61018f366004611006565b610bb4565b6101a76101a2366004610fd6565b610c75565b6040516100ce9190611259565b6100ea6101c2366004611006565b610d67565b60355481565b8160355481106101f85760405162461bcd60e51b81526004016101ef90611122565b60405180910390fd5b60008381526034602052604090205483906001600160a01b031633146102305760405162461bcd60e51b81526004016101ef90611150565b8360048060008381526034602052604090206038015460ff16600781111561025457fe5b146102715760405162461bcd60e51b81526004016101ef90611211565b856000805160206113258339815191523388600460405161029493929190611099565b60405180910390a160008781526034602052604080822060390188905582825290206038015460ff1660078111156102c857fe5b60010160078111156102d657fe5b6000828152603460205260409020603801805460ff191660018360078111156102fb57fe5b021790555050505050505050565b6000816034811061031657fe5b0154905081565b610325610e9a565b8260355481106103475760405162461bcd60e51b81526004016101ef90611122565b8360018060008381526034602052604090206038015460ff16600781111561036b57fe5b146103885760405162461bcd60e51b81526004016101ef90611211565b6000868152603460205260409081902060018082018054336001600160a01b031990911681179091556036909201805460ff191660ff8a1617905591518892600080516020611325833981519152926103e49290918591611099565b60405180910390a16000878152603460208190526040918290208251610680810193849052926002909101919082845b815481526020019060010190808311610414575050505050945060008181526034602052604090206038015460ff16600781111561044e57fe5b600101600781111561045c57fe5b6000828152603460205260409020603801805460ff1916600183600781111561048157fe5b02179055505050505092915050565b600061049a610eb9565b338082526040808301859052600160a08401526035549051909350600080516020611325833981519152916104d3918590600090611099565b60405180910390a1600082815260346020818152604092839020845181546001600160a01b03199081166001600160a01b039283161783559286015160018301805490941691161790915591830151839291610533916002840191610f02565b50606082015160368201805460ff90921660ff199283161790556080830151603783015560a08301516038830180549192909116600183600781111561057557fe5b021790555060c0820151603982015560e090910151603a9091015550603580546001019055919050565b6000808260355481106105c45760405162461bcd60e51b81526004016101ef90611122565b8360068060008381526034602052604090206038015460ff1660078111156105e857fe5b146106055760405162461bcd60e51b81526004016101ef90611211565b61060d610eb9565b60008781526034602081815260409283902083516101008101855281546001600160a01b039081168252600183015416928101929092528351610680810180865292949193918501929091600285019182845b815481526020019060010190808311610660575050509183525050603682015460ff90811660208301526037830154604083015260388301546060909201911660078111156106ab57fe5b60078111156106b657fe5b815260200160398201548152602001603a820154815250509050600073__Math__________________________________63783ce4588360400151846060015160ff166034811061070357fe5b60200201518460c001517f024776ffd3cbd21c872eccd26ad078c5ba0586e2e57cf68515e3c4828a673a6e6040518463ffffffff1660e01b815260040161074c93929190611302565b60206040518083038186803b15801561076457600080fd5b505af4158015610778573d6000803e3d6000fd5b505050506040513d601f19601f8201168201806040525081019061079c9190610fee565b608083015160e0840151604051630f079c8b60e31b815292935060009273__Math__________________________________9263783ce45892610803927f024776ffd3cbd21c872eccd26ad078c5ba0586e2e57cf68515e3c4828a673a6e90600401611302565b60206040518083038186803b15801561081b57600080fd5b505af415801561082f573d6000803e3d6000fd5b505050506040513d601f19601f820116820180604052508101906108539190610fee565b9050600061086083610e5c565b9050600061086d83610e5c565b9050600080516020611325833981519152338c600660405161089193929190611099565b60405180910390a160008b81526034602052604090819020603801805460ff191660079081179091559051600080516020611325833981519152916108d99133918f91611099565b60405180910390a1811580156108ed575080155b1561093f577fee19f9fdced5bd2142dbf93978963246b1a1969bb97be7f0df73d3112062395c8b600080604051610926939291906112ea565b60405180910390a16000809950995050505050506109cb565b604051838511907fee19f9fdced5bd2142dbf93978963246b1a1969bb97be7f0df73d3112062395c90610978908e9060019085906112ea565b60405180910390a16001816109a75760008d8152603460205260409020600101546001600160a01b03166109c0565b60008d8152603460205260409020546001600160a01b03165b9a509a505050505050505b505050915091565b8160355481106109f55760405162461bcd60e51b81526004016101ef90611122565b60008381526034602052604090205483906001600160a01b03163314610a2d5760405162461bcd60e51b81526004016101ef90611150565b8360038060008381526034602052604090206038015460ff166007811115610a5157fe5b14610a6e5760405162461bcd60e51b81526004016101ef90611211565b8560008051602061132583398151915233886003604051610a9193929190611099565b60405180910390a160008781526034602052604080822060370188905582825290206038015460ff1660078111156102c857fe5b60008060355411610ae85760405162461bcd60e51b81526004016101ef9061117e565b6035548281610af357fe5b069150600160008381526034602052604090206038015460ff166007811115610b1857fe5b1415610b25575080610b8b565b815b82811015610b7257600160008281526034602052604090206038015460ff166007811115610b5157fe5b1415610b5e579050610b8b565b828160010181610b6a57fe5b069050610b27565b5060405162461bcd60e51b81526004016101ef906111c8565b919050565b7f024776ffd3cbd21c872eccd26ad078c5ba0586e2e57cf68515e3c4828a673a6e81565b816035548110610bd65760405162461bcd60e51b81526004016101ef90611122565b60008381526034602052604090206001015483906001600160a01b03163314610c115760405162461bcd60e51b81526004016101ef906110f6565b8360028060008381526034602052604090206038015460ff166007811115610c3557fe5b14610c525760405162461bcd60e51b81526004016101ef90611211565b8560008051602061132583398151915233886002604051610a9193929190611099565b610c7d610eb9565b816035548110610c9f5760405162461bcd60e51b81526004016101ef90611122565b60008381526034602081815260409283902083516101008101855281546001600160a01b039081168252600183015416928101929092528351610680810180865292949193918501929091600285019182845b815481526020019060010190808311610cf2575050509183525050603682015460ff9081166020830152603783015460408301526038830154606090920191166007811115610d3d57fe5b6007811115610d4857fe5b815260398201546020820152603a909101546040909101529392505050565b816035548110610d895760405162461bcd60e51b81526004016101ef90611122565b60008381526034602052604090206001015483906001600160a01b03163314610dc45760405162461bcd60e51b81526004016101ef906110f6565b8360058060008381526034602052604090206038015460ff166007811115610de857fe5b14610e055760405162461bcd60e51b81526004016101ef90611211565b8560008051602061132583398151915233886005604051610e2893929190611099565b60405180910390a1600087815260346020526040808220603a0188905582825290206038015460ff1660078111156102c857fe5b6000805b6034811015610e915760008160348110610e7657fe5b0154831415610e89576001915050610b8b565b600101610e60565b50600092915050565b6040518061068001604052806034906020820280368337509192915050565b604080516101008101825260008082526020820152908101610ed9610e9a565b815260006020820181905260408201819052606082018190526080820181905260a09091015290565b8260348101928215610f30579160200282015b82811115610f30578251825591602001919060010190610f15565b50610f3c929150610f40565b5090565b5b80821115610f3c5760008155600101610f41565b6000610680808385031215610f68578182fd5b83601f840112610f76578182fd5b60405181810181811067ffffffffffffffff82111715610f94578384fd5b6040528084838101871015610fa7578485fd5b8493505b6034841015610fcb57803582526001939093019260209182019101610fab565b509095945050505050565b600060208284031215610fe7578081fd5b5035919050565b600060208284031215610fff578081fd5b5051919050565b60008060408385031215611018578081fd5b50508035926020909101359150565b60008060408385031215611039578182fd5b82359150602083013560ff81168114611050578182fd5b809150509250929050565b8060005b603481101561107e57815184526020938401939091019060010161105f565b50505050565b6008811061108e57fe5b9052565b60ff169052565b6001600160a01b03841681526020810183905260608101600883106110ba57fe5b826040830152949350505050565b61068081016110d7828461105b565b92915050565b91151582526001600160a01b0316602082015260400190565b60208082526012908201527129b2b73232b91034b9903737ba102137b11760711b604082015260600190565b60208082526014908201527324b73232bc1037baba1037b3103137bab732399760611b604082015260600190565b60208082526014908201527329b2b73232b91034b9903737ba1020b634b1b29760611b604082015260600190565b6020808252602a908201527f4e6f626f64792068617320696e6974696174656420706c61792e2053746172746040820152691030b99020b634b1b29760b11b606082015260800190565b60208082526029908201527f546865726520617265206e6f20656d7074792073706f74732e2053746172742060408201526830b99020b634b1b29760b91b606082015260800190565b60208082526028908201527f46756e6374696f6e2063616e6e6f742062652063616c6c656420617420746869604082015267399039ba30ba329760c11b606082015260800190565b815161076082019061126a90611318565b82526020838101516001600160a01b031690830152604080840151906112929084018261105b565b5060608301516112a66106c0840182611092565b5060808301516106e083015260a08301516112c5610700840182611084565b5060c083015161072083015260e0909201516107409091015290565b90815260200190565b92835290151560208301521515604082015260600190565b9283526020830191909152604082015260600190565b6001600160a01b03169056feab674edee661bf6172fe80435e1b0f68ec95d00394b2184e4365ed947c91bfa1a2646970667358221220219b3c94c4e19cbea852859035af6e83c0268be6a403fe1e369eaec4d4ba7c8264736f6c63430007000033",
  "immutableReferences": {},
  "source": "// SPDX-License-Identifier: GPL v3\npragma solidity >= 0.7.0;\npragma experimental ABIEncoderV2;\n\nimport \"./Math.sol\";\nimport \"./GameHelpers.sol\";\n\ncontract Game is GameHelpers\n{\n    function commit_alice(uint[52] memory cards)\n        public\n        returns (uint _index)\n    {\n        Instance memory instance;\n        instance.alice = msg.sender;\n        instance.cards = cards;\n        instance.state = State.Commit_Bob;\n        _index = index;\n\n        emit Play(msg.sender, _index, State.Commit_Alice);\n        data[_index] = instance;\n        ++index;\n    }\n\n    function commit_bob(uint _index, uint8 alice_index)\n        validIndex(_index)\n        atState(_index, State.Commit_Bob)\n        transitionNext(_index)\n        public\n        returns (uint[52] memory)\n    {\n        data[_index].bob = msg.sender;\n        data[_index].alice_index = alice_index;\n\n        emit Play(msg.sender, _index, State.Commit_Bob);\n        return data[_index].cards;\n    }\n\n    function play_bob(uint _index, uint card)\n        validIndex(_index)\n        onlyBob(_index)\n        atState(_index, State.Play_Bob)\n        transitionNext(_index)\n        public\n    {\n        emit Play(msg.sender, _index, State.Play_Bob);\n        data[_index].bob_card = card;\n    }\n\n    function play_alice(uint _index, uint _bob_card)\n        validIndex(_index)\n        onlyAlice(_index)\n        atState(_index, State.Play_Alice)\n        transitionNext(_index)\n        public\n    {\n        emit Play(msg.sender, _index, State.Play_Alice);\n        data[_index].bob_card = _bob_card;\n    }\n\n    function reveal_alice(uint _index, uint alice_secret)\n        validIndex(_index)\n        onlyAlice(_index)\n        atState(_index, State.Reveal_Alice)\n        transitionNext(_index)\n        public\n    {\n        emit Play(msg.sender, _index, State.Reveal_Alice);\n        data[_index].alice_secret = alice_secret;\n    }\n\n    function reveal_bob(uint _index, uint bob_secret)\n        validIndex(_index)\n        onlyBob(_index)\n        atState(_index, State.Reveal_Bob)\n        transitionNext(_index)\n        public\n    {\n        emit Play(msg.sender, _index, State.Reveal_Bob);\n        data[_index].bob_secret = bob_secret;\n    }\n\n    function verify(uint _index)\n        validIndex(_index)\n        atState(_index, State.Verify)\n        public returns (bool, address)\n    {\n\t\tInstance memory instance = data[_index];\n        uint alice_card_decrypted =\n            Math.expmod(instance.cards[instance.alice_index], instance.alice_secret, N);\n        uint bob_card_decrypted =\n            Math.expmod(instance.bob_card, instance.bob_secret, N);\n\n        bool verify_alice = is_card_in_deck(alice_card_decrypted);\n        bool verify_bob = is_card_in_deck(bob_card_decrypted);\n\n        emit Play(msg.sender, _index, State.Verify);\n        data[_index].state = State.Done;\n        emit Play(msg.sender, _index, State.Done);\n\n        if (!verify_alice && !verify_bob)\n\t\t\t{\n\t\t\t\temit Winner(_index, false, false);\n\t\t\t\treturn (false, address(0));\n\t\t\t}\n\n\t\tbool isAlice = alice_card_decrypted > bob_card_decrypted;\n\t\temit Winner(_index, true, isAlice);\n\n        /* Picking a winner based on who has the \"largest hand\" */\n        return (\n                true,\n\t\t\t\tisAlice ? data[_index].alice : data[_index].bob\n        );\n    }\n}\n",
  "sourcePath": "/home/harikrishnan/area51/deal/contracts/Game.sol",
  "compiler": {
    "name": "solc",
    "version": "0.7.0+commit.9e61f92b.Emscripten.clang"
  },
  "schemaVersion": "3.2.3",
  "updatedAt": "2020-08-24T19:56:03.746Z",
  "networkType": "ethereum",
  "devdoc": {
    "kind": "dev",
    "methods": {},
    "version": 1
  },
  "userdoc": {
    "kind": "user",
    "methods": {
      "createMatch(uint256)": {
        "notice": "Finds a free spot to play, i.e., an instance whose state is waiting for bob to commit. The seed is used to start the search."
      }
    },
    "version": 1
  }
}