{
  "contractName": "Math",
  "abi": [
    {
      "inputs": [
        {
          "internalType": "uint256",
          "name": "base",
          "type": "uint256"
        },
        {
          "internalType": "uint256",
          "name": "exponent",
          "type": "uint256"
        },
        {
          "internalType": "uint256",
          "name": "mod_n",
          "type": "uint256"
        }
      ],
      "name": "expmod",
      "outputs": [
        {
          "internalType": "uint256",
          "name": "power",
          "type": "uint256"
        }
      ],
      "stateMutability": "pure",
      "type": "function",
      "constant": true
    }
  ],
  "bytecode": "0x60fe610025600b82828239805160001a60731461001857fe5b30600052607381538281f3fe730000000000000000000000000000000000000000301460806040526004361060335760003560e01c8063783ce458146038575b600080fd5b605e60048036036060811015604c57600080fd5b50803590602081013590604001356070565b60408051918252519081900360200190f35b600082801560835760018114608b57608f565b60019150608f565b8491505b50600190505b600183111560bc57600183161560ac578184820990505b8184850993508260011c92506095565b8184820994935050505056fea2646970667358221220562565430526f77bf20a25e87f0cd0b1246d96a17f2ff5de283d4c93fceb3e9d64736f6c63430007000033",
  "immutableReferences": {},
  "source": "// SPDX-License-Identifier: GPL v3\npragma solidity >= 0.7.0;\n\nlibrary Math {\n    // Based on https://github.com/ethereum/solidity/blob/12d0d6ab3428bee619432f281fbf3f51633cf669/libsolidity/codegen/YulUtilFunctions.cpp#L611\n    function expmod(uint base, uint exponent, uint mod_n) public pure returns (uint power)\n    {\n        assembly {\n            // 0**0 == 1\n            switch exponent case 0 { power := 1 } case 1 { power := base }\n            power := 1\n            for { } gt(exponent, 1) {} {\n                if and(exponent, 1) { power := mulmod(power, base, mod_n) }\n                base := mulmod(base, base, mod_n)\n                exponent := shr(1, exponent)\n            }\n            power := mulmod(power, base, mod_n)\n        }\n    }\n}\n",
  "sourcePath": "/home/harikrishnan/area51/deal/contracts/Math.sol",
  "compiler": {
    "name": "solc",
    "version": "0.7.0+commit.9e61f92b.Emscripten.clang"
  },
  "schemaVersion": "3.2.3",
  "updatedAt": "2020-08-19T15:55:48.925Z",
  "networkType": "ethereum",
  "devdoc": {
    "kind": "dev",
    "methods": {},
    "version": 1
  },
  "userdoc": {
    "kind": "user",
    "methods": {},
    "version": 1
  }
}